{
  "_format": "hh-sol-artifact-1",
  "contractName": "Marionette",
  "sourceName": "contracts/Marionette.sol",
  "abi": [
    {
      "inputs": [
        {
          "internalType": "address",
          "name": "unauthorizedSender",
          "type": "address"
        }
      ],
      "name": "Unauthorized",
      "type": "error"
    },
    {
      "anonymous": false,
      "inputs": [
        {
          "indexed": false,
          "internalType": "address",
          "name": "sender",
          "type": "address"
        },
        {
          "indexed": false,
          "internalType": "uint256",
          "name": "amount",
          "type": "uint256"
        }
      ],
      "name": "EtherReceived",
      "type": "event"
    },
    {
      "anonymous": false,
      "inputs": [
        {
          "indexed": false,
          "internalType": "address",
          "name": "receiver",
          "type": "address"
        },
        {
          "indexed": false,
          "internalType": "uint256",
          "name": "amount",
          "type": "uint256"
        }
      ],
      "name": "EtherSent",
      "type": "event"
    },
    {
      "anonymous": false,
      "inputs": [
        {
          "indexed": false,
          "internalType": "bytes",
          "name": "output",
          "type": "bytes"
        }
      ],
      "name": "FunctionCallResult",
      "type": "event"
    },
    {
      "anonymous": false,
      "inputs": [
        {
          "indexed": false,
          "internalType": "uint8",
          "name": "version",
          "type": "uint8"
        }
      ],
      "name": "Initialized",
      "type": "event"
    },
    {
      "anonymous": false,
      "inputs": [
        {
          "indexed": true,
          "internalType": "bytes32",
          "name": "role",
          "type": "bytes32"
        },
        {
          "indexed": true,
          "internalType": "bytes32",
          "name": "previousAdminRole",
          "type": "bytes32"
        },
        {
          "indexed": true,
          "internalType": "bytes32",
          "name": "newAdminRole",
          "type": "bytes32"
        }
      ],
      "name": "RoleAdminChanged",
      "type": "event"
    },
    {
      "anonymous": false,
      "inputs": [
        {
          "indexed": true,
          "internalType": "bytes32",
          "name": "role",
          "type": "bytes32"
        },
        {
          "indexed": true,
          "internalType": "address",
          "name": "account",
          "type": "address"
        },
        {
          "indexed": true,
          "internalType": "address",
          "name": "sender",
          "type": "address"
        }
      ],
      "name": "RoleGranted",
      "type": "event"
    },
    {
      "anonymous": false,
      "inputs": [
        {
          "indexed": true,
          "internalType": "bytes32",
          "name": "role",
          "type": "bytes32"
        },
        {
          "indexed": true,
          "internalType": "address",
          "name": "account",
          "type": "address"
        },
        {
          "indexed": true,
          "internalType": "address",
          "name": "sender",
          "type": "address"
        }
      ],
      "name": "RoleRevoked",
      "type": "event"
    },
    {
      "anonymous": false,
      "inputs": [
        {
          "indexed": false,
          "internalType": "string",
          "name": "oldVersion",
          "type": "string"
        },
        {
          "indexed": false,
          "internalType": "string",
          "name": "newVersion",
          "type": "string"
        }
      ],
      "name": "VersionUpdated",
      "type": "event"
    },
    {
      "inputs": [],
      "name": "ACCESS_VIOLATION",
      "outputs": [
        {
          "internalType": "string",
          "name": "",
          "type": "string"
        }
      ],
      "stateMutability": "view",
      "type": "function"
    },
    {
      "inputs": [],
      "name": "DEFAULT_ADMIN_ROLE",
      "outputs": [
        {
          "internalType": "bytes32",
          "name": "",
          "type": "bytes32"
        }
      ],
      "stateMutability": "view",
      "type": "function"
    },
    {
      "inputs": [],
      "name": "IMA_ROLE",
      "outputs": [
        {
          "internalType": "bytes32",
          "name": "",
          "type": "bytes32"
        }
      ],
      "stateMutability": "view",
      "type": "function"
    },
    {
      "inputs": [],
      "name": "PUPPETEER_ROLE",
      "outputs": [
        {
          "internalType": "bytes32",
          "name": "",
          "type": "bytes32"
        }
      ],
      "stateMutability": "view",
      "type": "function"
    },
    {
      "inputs": [
        {
          "internalType": "address",
          "name": "receiver",
          "type": "address"
        },
        {
          "internalType": "uint256",
          "name": "value",
          "type": "uint256"
        },
        {
          "internalType": "bytes",
          "name": "data",
          "type": "bytes"
        }
      ],
      "name": "encodeFunctionCall",
      "outputs": [
        {
          "internalType": "bytes",
          "name": "",
          "type": "bytes"
        }
      ],
      "stateMutability": "pure",
      "type": "function"
    },
    {
      "inputs": [
        {
          "internalType": "address payable",
          "name": "target",
          "type": "address"
        },
        {
          "internalType": "uint256",
          "name": "value",
          "type": "uint256"
        },
        {
          "internalType": "bytes",
          "name": "data",
          "type": "bytes"
        }
      ],
      "name": "execute",
      "outputs": [
        {
          "internalType": "bytes",
          "name": "",
          "type": "bytes"
        }
      ],
      "stateMutability": "payable",
      "type": "function"
    },
    {
      "inputs": [
        {
          "internalType": "bytes32",
          "name": "role",
          "type": "bytes32"
        }
      ],
      "name": "getRoleAdmin",
      "outputs": [
        {
          "internalType": "bytes32",
          "name": "",
          "type": "bytes32"
        }
      ],
      "stateMutability": "view",
      "type": "function"
    },
    {
      "inputs": [
        {
          "internalType": "bytes32",
          "name": "role",
          "type": "bytes32"
        },
        {
          "internalType": "uint256",
          "name": "index",
          "type": "uint256"
        }
      ],
      "name": "getRoleMember",
      "outputs": [
        {
          "internalType": "address",
          "name": "",
          "type": "address"
        }
      ],
      "stateMutability": "view",
      "type": "function"
    },
    {
      "inputs": [
        {
          "internalType": "bytes32",
          "name": "role",
          "type": "bytes32"
        }
      ],
      "name": "getRoleMemberCount",
      "outputs": [
        {
          "internalType": "uint256",
          "name": "",
          "type": "uint256"
        }
      ],
      "stateMutability": "view",
      "type": "function"
    },
    {
      "inputs": [
        {
          "internalType": "bytes32",
          "name": "role",
          "type": "bytes32"
        },
        {
          "internalType": "address",
          "name": "account",
          "type": "address"
        }
      ],
      "name": "grantRole",
      "outputs": [],
      "stateMutability": "nonpayable",
      "type": "function"
    },
    {
      "inputs": [
        {
          "internalType": "bytes32",
          "name": "role",
          "type": "bytes32"
        },
        {
          "internalType": "address",
          "name": "account",
          "type": "address"
        }
      ],
      "name": "hasRole",
      "outputs": [
        {
          "internalType": "bool",
          "name": "",
          "type": "bool"
        }
      ],
      "stateMutability": "view",
      "type": "function"
    },
    {
      "inputs": [
        {
          "internalType": "address",
          "name": "owner",
          "type": "address"
        },
        {
          "internalType": "address",
          "name": "ima",
          "type": "address"
        }
      ],
      "name": "initialize",
      "outputs": [],
      "stateMutability": "nonpayable",
      "type": "function"
    },
    {
      "inputs": [
        {
          "internalType": "bytes32",
          "name": "",
          "type": "bytes32"
        },
        {
          "internalType": "address",
          "name": "sender",
          "type": "address"
        },
        {
          "internalType": "bytes",
          "name": "data",
          "type": "bytes"
        }
      ],
      "name": "postMessage",
      "outputs": [],
      "stateMutability": "nonpayable",
      "type": "function"
    },
    {
      "inputs": [
        {
          "internalType": "bytes32",
          "name": "role",
          "type": "bytes32"
        },
        {
          "internalType": "address",
          "name": "account",
          "type": "address"
        }
      ],
      "name": "renounceRole",
      "outputs": [],
      "stateMutability": "nonpayable",
      "type": "function"
    },
    {
      "inputs": [
        {
          "internalType": "bytes32",
          "name": "role",
          "type": "bytes32"
        },
        {
          "internalType": "address",
          "name": "account",
          "type": "address"
        }
      ],
      "name": "revokeRole",
      "outputs": [],
      "stateMutability": "nonpayable",
      "type": "function"
    },
    {
      "inputs": [
        {
          "internalType": "address payable",
          "name": "target",
          "type": "address"
        },
        {
          "internalType": "uint256",
          "name": "value",
          "type": "uint256"
        }
      ],
      "name": "sendSFuel",
      "outputs": [],
      "stateMutability": "payable",
      "type": "function"
    },
    {
      "inputs": [
        {
          "internalType": "string",
          "name": "newVersion",
          "type": "string"
        }
      ],
      "name": "setVersion",
      "outputs": [],
      "stateMutability": "nonpayable",
      "type": "function"
    },
    {
      "inputs": [
        {
          "internalType": "bytes4",
          "name": "interfaceId",
          "type": "bytes4"
        }
      ],
      "name": "supportsInterface",
      "outputs": [
        {
          "internalType": "bool",
          "name": "",
          "type": "bool"
        }
      ],
      "stateMutability": "view",
      "type": "function"
    },
    {
      "inputs": [],
      "name": "version",
      "outputs": [
        {
          "internalType": "string",
          "name": "",
          "type": "string"
        }
      ],
      "stateMutability": "view",
      "type": "function"
    },
    {
      "stateMutability": "payable",
      "type": "receive"
    }
  ],
  "bytecode": "0x608060405234801561001057600080fd5b50611b10806100206000396000f3fe6080604052600436106101185760003560e01c8063884cee5a116100a0578063b3c9af0611610064578063b3c9af061461037e578063b61d27f614610391578063ca15c873146103a4578063d547741f146103c4578063f81299b9146103e457600080fd5b8063884cee5a146102b55780639010d07c146102d557806391d148541461030d5780639bba6b781461032d578063a217fddf1461036957600080fd5b806334216d62116100e757806334216d621461021e57806336568abe14610240578063485cc9551461026057806354fd4d5014610280578063788bc78c1461029557600080fd5b806301ffc9a71461015c5780631e69959114610191578063248a9ca3146101be5780632f2ff15d146101fc57600080fd5b3661015757604080513381523460208201527f1e57e3bb474320be3d2c77138f75b7c3941292d647f5f9634e33a8e94e0e069b910160405180910390a1005b600080fd5b34801561016857600080fd5b5061017c61017736600461148e565b610418565b60405190151581526020015b60405180910390f35b34801561019d57600080fd5b506101b16101ac366004611516565b610443565b60405161018891906115ce565b3480156101ca57600080fd5b506101ee6101d93660046115e1565b60009081526065602052604090206001015490565b604051908152602001610188565b34801561020857600080fd5b5061021c6102173660046115fa565b610475565b005b34801561022a57600080fd5b506101ee600080516020611abb83398151915281565b34801561024c57600080fd5b5061021c61025b3660046115fa565b61049f565b34801561026c57600080fd5b5061021c61027b36600461162a565b610522565b34801561028c57600080fd5b506101b1610690565b3480156102a157600080fd5b5061021c6102b0366004611658565b61071e565b3480156102c157600080fd5b5061021c6102d036600461169a565b610790565b3480156102e157600080fd5b506102f56102f03660046116de565b6108c2565b6040516001600160a01b039091168152602001610188565b34801561031957600080fd5b5061017c6103283660046115fa565b6108e1565b34801561033957600080fd5b506101b16040518060400160405280601081526020016f20b1b1b2b9b9903b34b7b630ba34b7b760811b81525081565b34801561037557600080fd5b506101ee600081565b61021c61038c366004611700565b61090c565b6101b161039f366004611516565b610991565b3480156103b057600080fd5b506101ee6103bf3660046115e1565b610a3d565b3480156103d057600080fd5b5061021c6103df3660046115fa565b610a54565b3480156103f057600080fd5b506101ee7f18f7915ceb1a15dd0c3170ef6d30ba89e0bcb07f4fb55858579385663709107e81565b60006001600160e01b03198216635a05180f60e01b148061043d575061043d82610a79565b92915050565b60608484848460405160200161045c9493929190611755565b6040516020818303038152906040529050949350505050565b60008281526065602052604090206001015461049081610aae565b61049a8383610abb565b505050565b6001600160a01b03811633146105145760405162461bcd60e51b815260206004820152602f60248201527f416363657373436f6e74726f6c3a2063616e206f6e6c792072656e6f756e636560448201526e103937b632b9903337b91039b2b63360891b60648201526084015b60405180910390fd5b61051e8282610add565b5050565b600054610100900460ff16158080156105425750600054600160ff909116105b8061055c5750303b15801561055c575060005460ff166001145b6105bf5760405162461bcd60e51b815260206004820152602e60248201527f496e697469616c697a61626c653a20636f6e747261637420697320616c72656160448201526d191e481a5b9a5d1a585b1a5e995960921b606482015260840161050b565b6000805460ff1916600117905580156105e2576000805461ff0019166101001790555b6105ea610aff565b6105f5600030610b6c565b61060d600080516020611abb83398151915284610b6c565b6001600160a01b03821615610646576106467f18f7915ceb1a15dd0c3170ef6d30ba89e0bcb07f4fb55858579385663709107e83610b6c565b801561049a576000805461ff0019169055604051600181527f7f26b83ff96e1f2b6a682f133852f6798a09c465da95921460cefb38474024989060200160405180910390a1505050565b60c9805461069d90611787565b80601f01602080910402602001604051908101604052809291908181526020018280546106c990611787565b80156107165780601f106106eb57610100808354040283529160200191610716565b820191906000526020600020905b8154815290600101906020018083116106f957829003601f168201915b505050505081565b6107296000336108e1565b6107485760405163472511eb60e11b815233600482015260240161050b565b7f22efc5f993dce37856b77dd72d7d7661032380c9728c4133f3c071c591bc6ca760c9838360405161077c939291906117c2565b60405180910390a161049a60c983836113f5565b6107ba7f18f7915ceb1a15dd0c3170ef6d30ba89e0bcb07f4fb55858579385663709107e336108e1565b6107fa5760405162461bcd60e51b815260206004820152601160248201527053656e646572206973206e6f7420494d4160781b604482015260640161050b565b610812600080516020611abb833981519152846108e1565b6040518060400160405280601081526020016f20b1b1b2b9b9903b34b7b630ba34b7b760811b815250906108595760405162461bcd60e51b815260040161050b91906115ce565b5060006108668383610b76565b90506000610881826000015183602001518460400151610bb9565b90507f96dfc08ca2be84df03b6ba50ac467a2e3cfa446eebcc623851fbee1ba0301784816040516108b291906115ce565b60405180910390a1505050505050565b60008281526097602052604081206108da9083610cab565b9392505050565b60009182526065602090815260408084206001600160a01b0393909316845291905290205460ff1690565b610924600080516020611abb833981519152336108e1565b6040518060400160405280601081526020016f20b1b1b2b9b9903b34b7b630ba34b7b760811b8152509061096b5760405162461bcd60e51b815260040161050b91906115ce565b5061049a828260405180604001604052806002815260200161060f60f31b815250610bb9565b60606109ab600080516020611abb833981519152336108e1565b6040518060400160405280601081526020016f20b1b1b2b9b9903b34b7b630ba34b7b760811b815250906109f25760405162461bcd60e51b815260040161050b91906115ce565b50610a34858585858080601f016020809104026020016040519081016040528093929190818152602001838380828437600092019190915250610bb992505050565b95945050505050565b600081815260976020526040812061043d90610cb7565b600082815260656020526040902060010154610a6f81610aae565b61049a8383610add565b60006001600160e01b03198216637965db0b60e01b148061043d57506301ffc9a760e01b6001600160e01b031983161461043d565b610ab88133610cc1565b50565b610ac58282610d25565b600082815260976020526040902061049a9082610dab565b610ae78282610dc0565b600082815260976020526040902061049a9082610e27565b600054610100900460ff16610b6a5760405162461bcd60e51b815260206004820152602b60248201527f496e697469616c697a61626c653a20636f6e7472616374206973206e6f74206960448201526a6e697469616c697a696e6760a81b606482015260840161050b565b565b61051e8282610abb565b60408051606080820183526000808352602083015291810191909152610b9e8284018461188c565b604084015260208301526001600160a01b0316815292915050565b60603415610bfa57604080513381523460208201527f1e57e3bb474320be3d2c77138f75b7c3941292d647f5f9634e33a8e94e0e069b910160405180910390a15b8215610c4357604080516001600160a01b0386168152602081018590527f6109e2559dfa766aaec7118351d48a523f0a4157f49c8d68749c8ac41318ad12910160405180910390a15b6001600160a01b0384163b15610c77576004825110610c7757610c706001600160a01b0385168385610e3c565b90506108da565b610c8a6001600160a01b03851684610e6a565b50604080518082019091526002815261060f60f31b60208201529392505050565b60006108da8383610f83565b600061043d825490565b610ccb82826108e1565b61051e57610ce3816001600160a01b03166014610fad565b610cee836020610fad565b604051602001610cff929190611959565b60408051601f198184030181529082905262461bcd60e51b825261050b916004016115ce565b610d2f82826108e1565b61051e5760008281526065602090815260408083206001600160a01b03851684529091529020805460ff19166001179055610d673390565b6001600160a01b0316816001600160a01b0316837f2f8788117e7eff1d82e926ec794901d17c78024a50270940304540a733656f0d60405160405180910390a45050565b60006108da836001600160a01b038416611149565b610dca82826108e1565b1561051e5760008281526065602090815260408083206001600160a01b0385168085529252808320805460ff1916905551339285917ff6391f5c32d9c69d2a47ea670b442974b53935d1edc7fd64eb21e047a839171b9190a45050565b60006108da836001600160a01b038416611198565b6060610e62848484604051806060016040528060298152602001611a926029913961128b565b949350505050565b80471015610eba5760405162461bcd60e51b815260206004820152601d60248201527f416464726573733a20696e73756666696369656e742062616c616e6365000000604482015260640161050b565b6000826001600160a01b03168260405160006040518083038185875af1925050503d8060008114610f07576040519150601f19603f3d011682016040523d82523d6000602084013e610f0c565b606091505b505090508061049a5760405162461bcd60e51b815260206004820152603a60248201527f416464726573733a20756e61626c6520746f2073656e642076616c75652c207260448201527f6563697069656e74206d61792068617665207265766572746564000000000000606482015260840161050b565b6000826000018281548110610f9a57610f9a6119ce565b9060005260206000200154905092915050565b60606000610fbc8360026119fa565b610fc7906002611a19565b67ffffffffffffffff811115610fdf57610fdf611876565b6040519080825280601f01601f191660200182016040528015611009576020820181803683370190505b509050600360fc1b81600081518110611024576110246119ce565b60200101906001600160f81b031916908160001a905350600f60fb1b81600181518110611053576110536119ce565b60200101906001600160f81b031916908160001a90535060006110778460026119fa565b611082906001611a19565b90505b60018111156110fa576f181899199a1a9b1b9c1cb0b131b232b360811b85600f16601081106110b6576110b66119ce565b1a60f81b8282815181106110cc576110cc6119ce565b60200101906001600160f81b031916908160001a90535060049490941c936110f381611a31565b9050611085565b5083156108da5760405162461bcd60e51b815260206004820181905260248201527f537472696e67733a20686578206c656e67746820696e73756666696369656e74604482015260640161050b565b60008181526001830160205260408120546111905750815460018181018455600084815260208082209093018490558454848252828601909352604090209190915561043d565b50600061043d565b600081815260018301602052604081205480156112815760006111bc600183611a48565b85549091506000906111d090600190611a48565b90508181146112355760008660000182815481106111f0576111f06119ce565b9060005260206000200154905080876000018481548110611213576112136119ce565b6000918252602080832090910192909255918252600188019052604090208390555b855486908061124657611246611a5f565b60019003818190600052602060002001600090559055856001016000868152602001908152602001600020600090556001935050505061043d565b600091505061043d565b6060824710156112ec5760405162461bcd60e51b815260206004820152602660248201527f416464726573733a20696e73756666696369656e742062616c616e636520666f6044820152651c8818d85b1b60d21b606482015260840161050b565b6001600160a01b0385163b6113435760405162461bcd60e51b815260206004820152601d60248201527f416464726573733a2063616c6c20746f206e6f6e2d636f6e7472616374000000604482015260640161050b565b600080866001600160a01b0316858760405161135f9190611a75565b60006040518083038185875af1925050503d806000811461139c576040519150601f19603f3d011682016040523d82523d6000602084013e6113a1565b606091505b50915091506113b18282866113bc565b979650505050505050565b606083156113cb5750816108da565b8251156113db5782518084602001fd5b8160405162461bcd60e51b815260040161050b91906115ce565b82805461140190611787565b90600052602060002090601f0160209004810192826114235760008555611469565b82601f1061143c5782800160ff19823516178555611469565b82800160010185558215611469579182015b8281111561146957823582559160200191906001019061144e565b50611475929150611479565b5090565b5b80821115611475576000815560010161147a565b6000602082840312156114a057600080fd5b81356001600160e01b0319811681146108da57600080fd5b6001600160a01b0381168114610ab857600080fd5b60008083601f8401126114df57600080fd5b50813567ffffffffffffffff8111156114f757600080fd5b60208301915083602082850101111561150f57600080fd5b9250929050565b6000806000806060858703121561152c57600080fd5b8435611537816114b8565b935060208501359250604085013567ffffffffffffffff81111561155a57600080fd5b611566878288016114cd565b95989497509550505050565b60005b8381101561158d578181015183820152602001611575565b8381111561159c576000848401525b50505050565b600081518084526115ba816020860160208601611572565b601f01601f19169290920160200192915050565b6020815260006108da60208301846115a2565b6000602082840312156115f357600080fd5b5035919050565b6000806040838503121561160d57600080fd5b82359150602083013561161f816114b8565b809150509250929050565b6000806040838503121561163d57600080fd5b8235611648816114b8565b9150602083013561161f816114b8565b6000806020838503121561166b57600080fd5b823567ffffffffffffffff81111561168257600080fd5b61168e858286016114cd565b90969095509350505050565b600080600080606085870312156116b057600080fd5b8435935060208501356116c2816114b8565b9250604085013567ffffffffffffffff81111561155a57600080fd5b600080604083850312156116f157600080fd5b50508035926020909101359150565b6000806040838503121561171357600080fd5b823561171e816114b8565b946020939093013593505050565b81835281816020850137506000828201602090810191909152601f909101601f19169091010190565b60018060a01b038516815283602082015260606040820152600061177d60608301848661172c565b9695505050505050565b600181811c9082168061179b57607f821691505b602082108114156117bc57634e487b7160e01b600052602260045260246000fd5b50919050565b60408152600080855481600182811c9150808316806117e257607f831692505b602080841082141561180257634e487b7160e01b86526022600452602486fd5b604088018490526060880182801561182157600181146118325761185d565b60ff1987168252828201975061185d565b60008d81526020902060005b878110156118575781548482015290860190840161183e565b83019850505b505087860381890152505050505061177d81858761172c565b634e487b7160e01b600052604160045260246000fd5b6000806000606084860312156118a157600080fd5b83356118ac816114b8565b925060208401359150604084013567ffffffffffffffff808211156118d057600080fd5b818601915086601f8301126118e457600080fd5b8135818111156118f6576118f6611876565b604051601f8201601f19908116603f0116810190838211818310171561191e5761191e611876565b8160405282815289602084870101111561193757600080fd5b8260208601602083013760006020848301015280955050505050509250925092565b7f416363657373436f6e74726f6c3a206163636f756e7420000000000000000000815260008351611991816017850160208801611572565b7001034b99036b4b9b9b4b733903937b6329607d1b60179184019182015283516119c2816028840160208801611572565b01602801949350505050565b634e487b7160e01b600052603260045260246000fd5b634e487b7160e01b600052601160045260246000fd5b6000816000190483118215151615611a1457611a146119e4565b500290565b60008219821115611a2c57611a2c6119e4565b500190565b600081611a4057611a406119e4565b506000190190565b600082821015611a5a57611a5a6119e4565b500390565b634e487b7160e01b600052603160045260246000fd5b60008251611a87818460208701611572565b919091019291505056fe416464726573733a206c6f772d6c6576656c2063616c6c20776974682076616c7565206661696c6564dbe8b307f60c9ed0e3764e9100b17f1d4c5fd58ba7889d208d166f481302d4cfa264697066735822122008c0228d939614bc2959fabbcab1b71f9eee5a3c4cdbe8c2f59d6bfad95afbf864736f6c634300080b0033",
  "linkReferences": {},
  "deployedLinkReferences": {}
}